:1000000000308A0041280000FF00030E8301A10098
:100010000A08A0008A010408A2007708A300780853
:10002000A4007908A5007A08A600831383120B1E8A
:100030001B288B182C28220884002308F70024088A
:10004000F8002508F9002608FA0020088A00210E89
:100050008300FF0E7F0E09008A110A122F288B1CC5
:1000600033280130A7072708023C031D3D28A701BC
:10007000831686100230831286068B108A110A12AC
:100080001B2803081F398300A70183161F149F1420
:100090001F159F1107309C008313D7308100D0308B
:1000A00083128B008B10013083168600861083121A
:0800B000861459285A28630048
:02400E00723905
:00000001FF
;PIC16F877A
;CRC=80B2  CREATED="26-Thg5-23 10:09"
