:02000000752960
:0C000600000000000000000000000800E6
:10001200243083120313FC00B530FD00FD0B0F28C2
:0A002200FC0B0F280000000008008E
:0E002C00533083120313FD00FD0B1A28080049
:10003A0083120313B81B2328861324288617381B18
:10004A002828061329280617B81A2D2886122E28BA
:10005A008616381A32280612332806162018372828
:10006A00061438280610861403208610B8193F286B
:10007A008613402886173819442806134528061778
:10008A00B818492886124A28861638184E280612A1
:10009A004F280616201853280614542806108614CA
:1000AA0003208610201C5B2809205C2816200800E3
:0E00BA008312031322088A0021088200080026
:1000C8008312031320103708B8001D2020140800DD
:1000D80083120313F801F9011030FC00710DF80DBB
:1000E800F90D7408F8027508031C750FF902031856
:1000F80084287408F80775080318750FF9070310A2
:0A010800F00DF10DFC0B7228080049
:100112005D208A110A128000840AA10A0319A20A28
:08012200F003031D8928080009
:10012A0083120313B301330832078400000803194A
:10013A00A6283308320784000008B7006420B30AEF
:04014A0098280800E9
:10014E0083120313B501053035020318B52835089F
:10015E003407840020308000B50AAA2835083407F9
:10016E0084008001B50335083407B6000A30F40068
:10017E00F5013208F0003308F1006C207808F00029
:10018E007908F1003030F0073608840070088000DE
:10019E000A30F400F5013208F0003308F1006C204B
:1001AE007008B2007108B30000307106031DE1281B
:1001BE0000307006031DE428E628B503BA280800AF
:1001CE00F928803083120313B2000C29C030B2001C
:1001DE000C299430B2000C29D430B2000C29803096
:1001EE00B2000C29831203133208013A0319E828CE
:1001FE003208023A0319ED283208033A0319F0289F
:10020E003208043A0319F328F6283303F0003208B3
:10021E00F0077008B2007008B8001D202010B5015C
:10022E0035083407840000080319252935083407DA
:10023E0084000008B7006420B50A172920140800AE
:10024E0083160313861006100612861206138613E3
:10025E0083128610061086130613861206120920C4
:10026E0009200920861606168614032086100920FA
:10027E008614032086100920861403208610092078
:10028E000612861403208610092086140320861079
:10029E0086128617861403208610092086130616EA
:1002AE008614032086100612861403208610092059
:1002BE008614032086100616861403208610092045
:1002CE000612861403208610861706178616061643
:0C02DE008614032086100920201408005C
:1002EA0083160313081427210C30B8001D2001308F
:1002FA00B2000130B3005430AB002030AC003D30C6
:10030A00AD00AE012B30B400E7209010101210128D
:10031A008F01081C91298E290818942991291014F3
:10032A00081C9829952908189B29982910100F0844
:10033A00A300A4012308F100F0017008A3007108CA
:10034A00A4000E08F0040030F1047008A30071083C
:10035A00A4008830F4001330F5006C207008B20055
:10036A007108B3002530B400A7200130B200043070
:10037A00B3002530B400E7206D30AF007330B00011
:10038A00B1012F30B20095200D30FB00AF30FC00D8
:10039A00B630FD00FD0BCF29FC0BCF29FB0BCF2973
:0603AA0000008D29D72997
:02400E004A2F37
:00000001FF
