:060000000A128A110C280F
:10000800FE00030EF0000A08F1000A128A115B28AC
:100018000A128A110F2883010A128A113C2880309B
:10002800F500F6017508F200760A1C280310F20C98
:10003800FF3E031D1A287208831203130804880060
:100048000230F4000430F300BA30F200F20B2A2830
:10005800F30B2A28F40B2A2800000130F20072085A
:10006800F60708307602031C3A283B2816280800B1
:100078008316031789018801831603138801FF304B
:1000880086008113FF3095008B170B168B10011318
:100098008312031388010A128A1113200A128A1183
:1000A8008312031388014F280A128A110C288B1017
:1000B800831203130618612862286B28061C65281A
:1000C80066286228061C69286A286B288801710836
:0C00D8008A00700E8300FE0E7E0E0900F0
:08400000FF3FFF3FFF3FFF3FC0
:04400E00F230FF3F4E
:00000001FF
