:02000000B8281E
:10000600A53083120313FD00FD0B07280000000036
:020016000800E0
:1000180083120313FB01FA01F9018030F800F10C97
:10002800F00C031C20287408F90775080318750FCD
:10003800FA070318FB0A0310F01F28287408FA07A8
:1000480075080318750FFB07FB0CFA0CF90CF80C74
:10005800031C13287B08F3007A08F2007908F100E2
:060068007808F00008001A
:0C006E008312031395011712971208006B
:10007A00831603131208013EF000F1010318F10A76
:10008A0083122308F400F5010C200630F2007008F0
:10009A00F4007108F500720803195828F50CF40CDD
:1000AA00F513FF3E51280430F1007408F00071087E
:1000BA0003196328F00D7010FF3E5D28303070057B
:1000CA00F3007408F0007508F100F10CF00CF1135C
:1000DA00F10CF00CF113700895000F3097057308B6
:0400EA00970408006F
:1000EE0083120313A8012408F1000130F0007108F7
:1000FE0003198528F00D7010FF3E7F287008A700A9
:10010E002308840070080005F10071080130031DFA
:10011E000030F0002608F0060319AD282508003C33
:10012E0003189D2803200320A50395282308840087
:10013E0027080005F10071080130031D0030F000A2
:10014E002608F0060319AD28FF30A8002808F00095
:02015E00080097
:10016000831603130711831212150C30970408002D
:1001700083120313A201073083169F04FF3085000A
:1001800087018312121492147C3083169200372058
:100190002208A3003D20B0200530A300A4010A30AE
:1001A000A500A601772070080319E928FF30220274
:1001B0000318DB28A20A2208A3003D200D30FC0012
:1001C000FB30FD00FD0BE228FC0BE22800000000E4
:1001D000CC280530A3000130A4000A30A500A601F8
:1001E00077207008031907292208003C0318F92812
:1001F000A2032208A3003D200D30FC00FB30FD00CF
:10020000FD0B0029FC0B002900000000E928CC2888
:020210000829BB
:02400E00CA2FB7
:00000001FF
