:1000000000308A001A28000023308400831300087F
:10001000031917280630F800F701F70B0D28F80B25
:100020000C287B30F700F70B1328800B0A288A1165
:100030000A123E2803081F398300A101A001FF30E6
:10004000A20083161F149F141F159F1107309C00D8
:1000500083131F109F141F159F151F1383121F1743
:100060009F1783169F1383121F140030F8001F0878
:10007000C73978049F000130A30004282211220808
:1000800083168700831207110C3097000030F800A8
:1000900004389200FF308316920083121F151F1937
:1000A0004F281E08F90083161E08F80079088312ED
:1000B000A1007808A0002108F9002008F800F90C38
:1000C000F80CF90CF80CF90C78089500F90C790C7F
:1000D0003039F7001708CF39770497004E286300AE
:02400E00723905
:00000001FF
;PIC16F877A
;CRC=33E9  CREATED="26-Thg5-23 14:16"
