:060000000A128A110C280F
:10000800FE00030EF0000A08F1000A128A11BA294C
:100018000A128A110F28F901FA018313203084008B
:1000280034300A128A11D2210A128A1183010A1263
:100038008A117E2983120313B501F31F242825286A
:100048002C28F209F309F20A0319F30AB501B50AD3
:10005800F51F2F2830283928F409F509F40A03195F
:10006800F50A0130F6007608B506B601B701720840
:1000780073040319402841287828B401B40A4F288A
:1000880001300310F20DF30DFF3E031D452801302A
:10009800F6007608B407F31F522853284428013085
:1000A8000310B60DB70DFF3E031D542873087502E3
:1000B800031D602872087402031C632864286B28D7
:1000C8007208F4027308031CF503F50236140130B4
:1000D8000310F30CF20CFF3E031D6C280130B40230
:1000E800031D772878285328350803197C287D288C
:1000F8008228B609B709B60A0319B70A3708F30000
:100108003608F200080083120313B91F8C288D28C3
:10011800AF28B201B20306103809F7003909F80010
:10012800F70A0319F80A7708A8007808A900FE302A
:10013800F200FF30F3003908F5003808F4000A121D
:100148008A111E200A128A11730883120313AB0046
:100158007208AA00E0283908803AFF0080307F0240
:10016800031DB82801303802031CBB28BC28D92835
:1001780083120313B201B20A06143908A900380819
:10018800A8000230F2000030F3003908F500380802
:10019800F4000A128A111E200A128A1173088312A7
:1001A8000313AB007208AA00E02883120313B201FC
:1001B800A801A901AA01AB01080083120313B91F02
:1001C800E628E7280929B301B30386113809F7009F
:1001D8003909F800F70A0319F80A7708AC00780813
:1001E800AD00FE30F200FF30F3003908F5003808A2
:1001F800F4000A128A111E200A128A117308831247
:100208000313AF007208AE0032293908803AFF00A4
:1002180080307F02031D122901303802031C152982
:1002280016292B2983120313B301B30A861539083B
:10023800AD003808AC003908F8003808F70003109A
:10024800F80CF70C7708AE007808AF003229831253
:100258000313B301AC01AD01AE01AF010800831275
:1002680003133308031939293A2959290130F907A1
:100278000318FA0A0030FA077A082F02031D4629E4
:1002880079082E02031C49294A294C2908174D29A7
:1002980008132D087A02031D53292C087902031C20
:1002A800562957295929F901FA01320803195D29F4
:1002B8005E297D290130B0070318B10A0030B10763
:1002C80031082B02031D6A2930082A02031C6D29F4
:1002D8006E29702988177129881329083102031D8E
:1002E800772928083002031C7A297B297D29B00147
:1002F800B101080083120313921012108C10831698
:1003080003138C148B170B170930920083120313F5
:10031800910112158316031306128611081386100D
:100328000610881386120613861383120313861683
:100338000617861706128610323083120313B80088
:100348000030B9000A128A11E1200A128A113230EB
:1003580083120313B8000030B9000A128A118720EB
:100368000A128A11A0290A128A110C28831203136F
:100378008C1CBF29C029CB2912110A128A113321DA
:100388000A128A1183120313910112158C10710835
:100398008A00700E8300FE0E7E0E09006400800144
:0C03A800840A0406031900340406D3295B
:08400000FF3FFF3FFF3FFF3FC0
:02400E00FF3F72
:00000001FF
