:02000000642D6D
:0C000600000000000000000000000800E6
:0E001200533083120313FD00FD0B0D28080070
:10002000243083120313FC00B530FD00FD0B1628AD
:0A003000FC0B162800000000080079
:0E003A00F201F101F001F801F30100300800BD
:10004800FB14FB1F2E28FF30F300F200F100F00034
:08005800FA0DF20CFF30080064
:1000600083120313D91B3628861337288617591B8A
:100070003B2806133C280617D91A40288612412827
:100080008616591A45280612462806163A184A288E
:1000900006144B280610861403208610D9195228FE
:1000A00086135328861759195728061358280617F8
:1000B000D9185C2886125D28861659186128061200
:1000C000622806163A186628061467280610861451
:1000D000032086103A1C6E2810206F280920080083
:1000E0007B15FB1F7A280130F300F201F101F001CA
:0800F000FA0DF20CFF300800CC
:0800F800FA1FF21300300800AA
:10010000831203133A105808D90030203A1408001B
:0E011000831203133C088A003B08820008009B
:10011E007B14FB1F9A28F201FA1FFF30F200F10048
:0A012E00F000FA0DF20CFF3008009B
:100138007C18D228FC18A3287C19F1289C28A00137
:100148007208031DC3287108F2007008F1007808CE
:10015800F000F801A0157208031DC3287108F20009
:100168007008F100F001A01120167208031DC328C1
:100178007108F200F101A01572080319E52820089A
:10018800F302031D031CE9280310F21BD228F80D03
:10019800F00DF10DF20DF30BC928E9287B1B701C3B
:1001A800ED28F81FED28F00A0319F10A0319F20ADD
:1001B800031DED28F20CF10CF00CF30A0319F128D9
:1001C800ED280130FC001D20F4280230FC007020CE
:1001D800F4280430FC007C20F4280830FC0024209B
:0401E800000008000B
:1001EC0083120313F8010830FC00700DF80D74082D
:1001FC00F80203180329F8070310F00DFC0BFB2879
:02020C000800E8
:06020E00FB15FF300800A3
:10021400A0017208031D1F297108F2007008F10083
:10022400F001A0157208031D1F297108F200F101E5
:10023400A0112016720803192D292008F302031DAA
:10024400031C31290310F21B3529F00DF10DF20DB9
:10025400F30B252931290130FC001D2038290230F7
:0E026400FC00702038290430FC007C200800CB
:10027200831203137008F800FB01FC019E30F300A7
:10028200FA01F201F101F0010230FC009C200800A9
:10029200831203132230FC00F801F901FA01FB0179
:1002A200FC0303197F290310FB0CFA0CF90CF80C60
:1002B200F30CF20CF10CF00C031C5129FC03031992
:1002C20071297408F80775080318750FF90776087D
:1002D2000318760FFA0777080318770FFB075529DB
:1002E2007408F80775080318750FF90776080318DC
:0E02F200760FFA0777080318770FFB0708004E
:100300009229803083120313D400A529C030D40071
:10031000A5299430D400A529D430D400A529803053
:10032000D400A529831203135408013A0319812923
:100330005408023A031986295408033A03198929F3
:100340005408043A03198C298F295503F0005408E6
:10035000F0077008D4007008D90030203A10D70197
:1003600057085607840000080319BE295708560786
:1003700084000008D8008020D70AB0293A14080069
:10038000831203137008F8007108F0007208F1007E
:100390007308F200F301FB01FC019E30F300FA0147
:0803A0000230FC009C20080063
:1003A800831203137008F8007108F000F101F201DC
:1003B800F301FB01FC019630F300FA01F01FEA2972
:1003C800F809F009F80A0319F00AFA177008F10099
:0C03D8007808F000F801F2010A2108008A
:1003E400831203137408003A031D0D2A7508003A9A
:1003F400031D0D2A7608003A031D0D2A7708003ADA
:10040400031D0D2AFF30F000FF30F1007F30F200B1
:10041400FF30F300A82A83120313770803199C2AD8
:10042400730803199F2A720876068039FA00F217B6
:10043400F617A0017208F8007108FC007008FD00AE
:100444007408FD027508031C750FFC027608031C72
:10045400760FF802F801FC01FD01031C382A031091
:10046400F20CF10CF00CF80C0130A0007708F30248
:10047400031C422A7E302007F3070318A22A472AC6
:100484007E302007F307031CA52A1830FA07FD0D58
:10049400FC0DF80DF00DF10DF20DA00D7408F00235
:1004A4007508031C750FF1027608031C760FF2021F
:1004B400760DA004201C602A7D146B2A7408F007B2
:1004C40075080318750FF10776080318760AF20702
:1004D4007D10FA031F307A05031D492A7B1B7D1CFE
:1004E400922A0310F00DF10DF20DA00D7408F00224
:1004F4007508031C750FF1027608031C760FF202CF
:10050400760D20040139FD070318FC0A0319F80AC3
:10051400031D922AF80CFC0CFD0CF30A0319A22A01
:10052400FA1FF8137808F2007C08F1007D08F00047
:100534000030A72A01300721A72A02301D20A72A4C
:0E05440004302420A72A083070200000080090
:1005520083120313FB01FC01F80173080319222B18
:10056200F2179E30F302F31BB92A0319B92A122B90
:10057200F309F30A08307302031CE72AF300F80DAB
:100582007008F8007108F0007208F100F2010830FA
:100592007302031CE72AF300F80D7008F8007108D3
:1005A200F000F10108307302031CE72AF300F80D92
:1005B2007008F800F00108307302031CE72AF30008
:1005C200F80DF8017308031D0310F12A73080319CB
:1005D200F12A0310F20CF10CF00CF80CF30BEA2ADE
:1005E2007B1B781CFF2A031CFF2AF80A0319F00A56
:1005F2000319F10A0319F20AF21B1F2BFA1F222B0D
:10060200F209F109F009F809F80A0319F00A0319C5
:10061200F10A0319F20A222BF201F101F001F801A9
:10062200222B7B14FB1F252BF201FA1F252BF20034
:10063200F100F000F800FA0DF20C252B0130FC005D
:10064200272B0030FC00272BFF30FC00FC0803198D
:100652002B2B8F207208F3007108F2007008F10052
:060662007808F00008001A
:10066800831203135408F000F00D7010F00D701091
:10067800F00D70107008403ED9003020D7010730C7
:1006880057020318592B57085507F0005608031846
:10069800013EF1007008BB007108BC0088208A1177
:1006A8000A12D8008020D70A432B0230D900302004
:0206B800080038
:1006BA0083120313FB01FC01FA01730803198A2B45
:1006CA00FA13F2178630F302F31B6E2B03196E2B03
:1006DA008C2BF309F30A08307302031C7B2BF300FB
:1006EA00F20DF2017308031D0310822B730803191C
:1006FA00822B0310F20CF30B7E2B7B1B721C8A2BB2
:10070A00031C8A2BF20A0319912BF101942B7B14F7
:10071A00FB1F972BF101972B0130FC00992B00301E
:10072A00FC00992BFF30FC00FC0803199D2B8F203D
:06073A007208F000080047
:10074000831203137008F100F0010830FC007108F7
:10075000F40C0318AF2BFC0BA82BF1010034031091
:10076000B42BF40C0318F107F10CF00CFC0BB12BBB
:0207700008007F
:1007720083120313D601033056020318C72B5608FF
:100782005507840020308000D60ABC2B5608550736
:1007920084008001D60356085507D7000A30F400BA
:1007A2005408F000F6207808F0003030F0075708BF
:1007B2008400700880000A30F4005408F000F6202B
:1007C2007008D4007008003A031DE82BEA2BD60308
:0407D200CC2B080024
:1007D600FD2B803083120313D400102CC030D400BC
:1007E600102C9430D400102CD430D400102C80302F
:1007F600D400102C831203135408013A0319EC2B6E
:100806005408023A0319F12B5408033A0319F42B3E
:100816005408043A0319F72BFA2B5503F000540831
:10082600F0077008D4003A147008D90030203A1046
:0A0836005608D90030203A140800DB
:1008400083120313D401E130D5000530D6003423E0
:100850000130D400D930D5000530D6003423023021
:10086000D400D130D5000530D60034233E08F00046
:100870003F08F400A023D4210030F4000030F5003C
:100880004830F6008530F700F2215D237008BE0085
:100890000130C000C101C201C3014308003C031D77
:1008A0005B2C4208003C031D5B2C4108003C031DEF
:1008B0005B2C40083F02031C7B2C3D08D400400801
:1008C000D500D601EB234008F0004108F1004208B2
:1008D000F2004308F300F00A0319F10A0319F20ABF
:1008E0000319F30A7008C0007108C1007208C20041
:1008F0007308C3004D2C0130C400C501C601C701F7
:100900004708003C031D8E2C4608003C031D8E2C1E
:100910004508003C031D8E2C44083E02031C092D93
:100920004408F0004508F1004608F2004708F300CB
:100930000A30F400F501F601F70149217008D000F2
:100940007108D1007208D2007308D3003F08F0008C
:1009500039210030F4000030F5002030F6008230FC
:10096000F700F2217008CC007108CD007208CE00AB
:100970007308CF005008F0005108F1005208F2004F
:100980005308F300C0214C08F4004D08F5004E0850
:10099000F6004F08F700F221A9227008D400483071
:1009A000D500B9230230D4000130D5004830D6003C
:1009B00080212530D80080203D08D4004408D5008F
:1009C0000130D600EB230830FB009D30FC000530E1
:1009D000FD00FD0BE92CFC0BE92CFB0BE92C0000C6
:1009E00000004408F0004508F1004608F2004708FE
:1009F000F300F00A0319F10A0319F20A0319F30AC2
:100A00007008C4007108C5007208C6007308C700EA
:040A1000802C08002E
:100A14008316031386100610061286120613861315
:100A240083128610061086130613861206121020EF
:100A34001020102086160616861403208610102017
:100A4400861403208610102086140320861010209C
:100A540006128614032086101020861403208610A4
:100A64008612861786140320861010208613061615
:100A74008614032086100612861403208610102084
:100A84008614032086100616861403208610102070
:100A94000612861403208610861706178616061675
:0C0AA40086140320861010203A1408006D
:100AB00088208A110A128000840ABB0A0319BC0A22
:080AC000F003031D582D08008E
:100AC8004C3083120313A1004F30A2004130A30021
:100AD8004430A4004930A5004E30A6004730A70096
:100AE8002E30A8002E30A9002E30AA00AB015330BA
:100AF800AC007930AD007330AE007430AF006530B3
:100B0800B0006D30B1002030B2005230B300653013
:100B1800B4006130B5006430B6007930B7002130D8
:100B2800B800B9010A250C30D90030200130D400B2
:100B38000130D5002130D60080210330BD004B3074
:100B4800BE001430BF0020240130D4000130D5008D
:100B58002C30D60080210C30D90030200D30FB001D
:100B6800AF30FC00B630FD00FD0BB82DFC0BB82DE6
:100B7800FB0BB82D00000830D90030200D30FB00E9
:100B8800AF30FC00B630FD00FD0BC82DFC0BC82DA6
:0A0B9800FB0BC82D0000AF2DD02D7F
:100BA2001C341C341C341C341C341C341C340034DF
:100BB2001F341F341F341F341F341F341F340034BA
:100BC2001F34113411341134113411341F340034F0
:02400E00CA2FB7
:00000001FF
