:100000000A128A11FC2F00308A000408840A820731
:100010000034C034F934A434B03499349234823486
:06002000F8348034903436
:100C9200831603130C108312031390121012901474
:100CA2008F018E01101408007808790403195A2E56
:100CB2005B2E8A2EFD01FD0A692E01300310F80D0C
:100CC200F90DFF3E031D5F2E0130FC007C08FD077D
:100CD200F91F6C2E6D2E5E2E79087B02031D732E7A
:100CE20078087A02031C762E772E7D2E7808FA0277
:100CF2007908031CFB03FB0201300310F90CF80C0A
:100D0200FF3E031D7E2E0130FD02031D892E8A2E19
:100D12006D2E7B08F9007A08F8000800F501F6014B
:100D2200700871040319962E972ECE2EF701F70A3A
:100D3200A52E01300310F00DF10DFF3E031D9B2E79
:100D42000130F4007408F707F11FA82EA92E9A2E7D
:100D520001300310F50DF60DFF3E031DAA2E71089A
:100D62007302031DB62E70087202031CB92EBA2E2E
:100D7200C12E7008F2027108031CF303F30275140A
:100D820001300310F10CF00CFF3E031DC22E0130A6
:100D9200F702031DCD2ECE2EA92E7608F10075087E
:100DA200F0000800073083120313A0002008831606
:100DB20003139F048801831203138801831603130C
:100DC20086018312031386010A128A1149260A1226
:100DD2008A11831203130F08A000A1012008A200A8
:100DE2002108A30008300310A20DA30DFF3E031D2E
:100DF200F42E0E08A000A1012008A2042108A304D9
:100E020027302302103003192202031C092F0A2F54
:100E1200102FA201A30110108E018F011014E830CF
:100E2200F0000330F1002308F3002208F2000A1256
:100E32008A118F260A128A117008013E84000A1252
:100E42008A1103200A128A118312031386000810E2
:100E5200073083120313A1007C30A000A00B2F2FB8
:100E6200A10B2F2F000083120313081407308312E3
:100E72000313A1007C30A000A00B3D2FA10B3D2F3E
:100E820000000A30F8000030F9006430F000003051
:100E9200F100831203132308F3002208F2000A125E
:100EA2008A118F260A128A117108FB007008FA0053
:100EB2000A128A1155260A128A117808013E840004
:100EC2000A128A1103200A128A118312031386005E
:100ED2008810073083120313A1007C30A000A00BFE
:100EE200702FA10B702F0000831203138814073098
:100EF20083120313A1007C30A000A00B7E2FA10B54
:100F02007E2F00000A30F8000030F9000A30F000AD
:100F12000030F100831203132308F3002208F200C9
:100F22000A128A118F260A128A117108FB007008B0
:100F3200FA000A128A1155260A128A117808013E0D
:100F420084000A128A1103200A128A1183120313DF
:100F520086000811073083120313A1007C30A00021
:100F6200A00BB12FA10BB12F0000831203130815A0
:100F7200073083120313A1007C30A000A00BBF2F07
:100F8200A10BBF2F00000A30F8000030F9008312D5
:100F920003132308FB002208FA000A128A115526BD
:100FA2000A128A117808013E84000A128A1103206B
:100FB2000A128A11831203138600881107308312E2
:100FC2000313A1007C30A000A00BE52FA10BE52F9D
:100FD2000000831203138815073083120313A10044
:100FE2007C30A000A00BF32FA10BF32F0000EA2E00
:0E0FF2000A128A11002883010A128A11D32ED6
:08400000FF3FFF3FFF3FFF3FC0
:02400E003A3F37
:00000001FF
