:020000002728AF
:1000060083120313F801F9011030FC00710DF80D8D
:10001600F90D7408F8027508031C750FF902031828
:100026001B287408F80775080318750FF9070310DD
:0A003600F00DF10DFC0B0928080085
:0E0040008312031321088A00200882000800A2
:10004E000730831603139F04071486018801831259
:10005E009014101290128E010E088F0010140F08BB
:10006E00A200A3012208F100F0017008A20071089D
:10007E00A3000E087004F2007108F3000030F304C0
:10008E007208A2007308A3007308003C031D5128D8
:10009E007208143C03185928A201A30110108E01F6
:1000AE008F011014E830F4000330F5002208F00040
:1000BE002308F10003207008A7007108A800E8309B
:1000CE00F4000330F5002208F0002308F1000320AD
:1000DE007808F0007908F1006430F4000030F50083
:1000EE0003207008A5006430F4000030F5002208EB
:1000FE00F0002308F10003207808F0007908F100E1
:10010E000A30F4000030F50003207008A4000A3015
:10011E00F4000030F5002208F0002308F10003205F
:10012E007808F0007908F1007008A6002708F000A2
:10013E00F101F00DF10D70101730F00701300318BA
:10014E00013EF1077008A0007108A10020208A115D
:10015E000A12860008100730FC007D30FD00FD0BF2
:10016E00B628FC0BB62808142508F000F101F00D96
:10017E00F10D70101730F00701300318013EF10732
:10018E007008A0007108A10020208A110A128600B2
:10019E0088100730FC007D30FD00FD0BD428FC0BD1
:1001AE00D42888142408F000F101F00DF10D701020
:1001BE001730F00701300318013EF1077008A00058
:1001CE007108A10020208A110A128600081107303A
:1001DE00FC007D30FD00FD0BF228FC0BF22808150B
:1001EE002608F000F101F00DF10D70101730F00738
:1001FE0001300318013EF1077008A0007108A1003C
:10020E0020208A110A12860088110730FC007D30EA
:10021E00FD00FD0B1029FC0B102988153628162918
:10022E00C0340034F9340034A4340034B034003413
:10023E00993400349234003482340034F83400346B
:08024E008034003490340034C8
:02400E004A2F37
:00000001FF
