:1000000000308A001A280000223084008313000880
:10001000031917280630F800F701F70B0D28F80B25
:100020000C287B30F700F70B1328800B0A288A1165
:100030000A123C2803081F398300A101A00183167E
:100040001F149F141F159F1107309C0083131F104E
:100050009F141F159F151F1383121F179F178316B9
:100060009F1383121F140030F8001F08C73978044B
:100070009F000130A2000428FF30831692007D30DB
:1000800083129500171697160C3097008316870178
:1000900004308312920091010030171A0130A2003F
:1000A0000030971A0130F7000310F70D7708220788
:0A00B0001507A000A1014C28630011
:02400E00723905
:00000001FF
;PIC16F877A
;CRC=435F  CREATED="26-Thg5-23 14:51"
