:020000008E2947
:0C000600000000000000000000000800E6
:0E001200533083120313FD00FD0B0D28080070
:10002000243083120313FC00B530FD00FD0B1628AD
:0A003000FC0B162800000000080079
:10003A0083120313BD1B23288613242886173D1B0E
:10004A002828061329280617BD1A2D2886122E28B5
:10005A0086163D1A32280612332806162018372823
:10006A00061438280610861403208610BD193F2866
:10007A008613402886173D19442806134528061773
:10008A00BD18492886124A2886163D184E28061297
:10009A004F280616201853280614542806108614CA
:1000AA0003208610201C5B2810205C2809200800E9
:1000BA00043083120313FC003A30FD00FD0B632861
:0800CA00FC0B63280000080094
:1000D2008312031320103C08BD001D2020140800C9
:0E00E2008312031322088A00210882000800FE
:1000F00083120313F8010830FC00700DF80D74082A
:10010000F80203188528F8070310F00DFC0B7D2872
:020110000800E5
:1001120071208A110A128000840AA10A0319A20A14
:08012200F003031D8928080009
:10012A00A728803083120313B600BA28C030B6005D
:10013A00BA289430B600BA28D430B600BA2880302B
:10014A00B600BA28831203133608013A031996280F
:10015A003608023A03199B283608033A03199E28DF
:10016A003608043A0319A128A4283703F0003608F0
:10017A00F0077008B6007008BD001D202010B901F4
:10018A0039083807840000080319D32839083807C2
:10019A0084000008BC006920B90AC5282014080098
:1001AA0083120313B801033038020318E32838080E
:1001BA003707840020308000B80AD8283808370763
:1001CA0084008001B80338083707B9000A30F40000
:1001DA003608F00078207808F0003030F007390847
:1001EA008400700880000A30F4003608F000782095
:1001FA007008B6007008003A031D04290629B803DE
:04020A00E8280800D8
:10020E008316031386100610061286120613861323
:10021E0083128610061086130613861206121020FD
:10022E001020102086160616861403208610102025
:10023E0086140320861010208614032086101020AA
:10024E0006128614032086101020861403208610B2
:10025E008612861786140320861010208613061623
:10026E008614032086100612861403208610102092
:10027E00861403208610061686140320861010207E
:10028E000612861403208610861706178616061683
:0C029E0086140320861010202014080095
:1002AA0083120313BB013708F1000130F000710813
:1002BA0003196329F00D7010FF3E5D297008BA001A
:1002CA003608840070080005F10071080130031D2A
:1002DA000030F0003908F00603198B293808003C71
:1002EA0003187B295D205D20B80373293608840032
:1002FA003A080005F10071080130031D0030F000D2
:10030A003908F00603198B29FF30BB003B08F000BF
:02031A000800D9
:10031C0083120313B401B501831607148601072158
:10032C000C30BD001D209014901290128F018E0184
:10033C0010140708B600B7011430B800B9015521E4
:10034C0070080319B729B40A0319B50A0708B600CF
:10035C00B7011430B800B901552170080319B72939
:10036C00AC293508003C031DBD293408033C031897
:10037C00C129B401B5010130B6000130B7004C30D1
:10038C00A7006530A8007430A9002730AA0073308C
:10039C00AB002030AC006330AD006F30AE00753078
:1003AC00AF006E30B0007430B1003A30B200B3011F
:1003BC002730B80095203408B6002330B700D5207C
:1003CC000230B6000130B7002330B80095209F29C9
:0203DC00EE2908
:02400E004A2F37
:00000001FF
