:0200000048288E
:10000600043083120313FC003A30FD00FD0B09286F
:08001600FC0B092800000800A2
:10001E0083120313A7012308F1000130F0007108C9
:10002E0003191D28F00D7010FF3E17287008A6004A
:10003E002208840070080005F10071080130031DCC
:10004E000030F0002508F006031945282408003C6E
:10005E000318352803200320A4032D28220884002A
:10006E0026080005F10071080130031D0030F00074
:10007E002508F00603194528FF30A7002708F000D1
:02008E00080068
:100090000730831603139F04FF3085008601831207
:1000A00086010530A200A3011430A400A5010F2091
:1000B00070080319672886010530A200A3011430D7
:1000C000A400A5010F207008031967285C280530DB
:1000D000A2000130A3001430A400A5010F20700875
:1000E00003198028013086000530A2000130A300EA
:1000F0001430A400A5010F2070080319802874286B
:100100000530A2000230A3001430A400A5010F2086
:10011000700803199928023086000530A2000230C9
:10012000A3001430A400A5010F207008031999281A
:060130008D2851289A28D9
:02400E00CA2FB7
:00000001FF
