:1000000000308A0018280000223084008313000882
:10001000031917280230F800F701F70B0D28F80B29
:100020000C289730F700F70B1328800B0A280800DC
:1000300003081F39830083161F149F141F159F1177
:1000400007309C008313811300308700073086003F
:1000500083128601870183161F1383121F139F17B4
:1000600083169F1783121F1483161F109F141F15CA
:100070009F150030F80083121F08C73978049F00CD
:100080000030F80006389200FF308316920064308A
:100090008312A20004201F151F194C281E08F90006
:1000A00083161E08F80079088312A1007808A000C2
:1000B0002108F9002008F800F90CF80CF90CF80CEC
:1000C000F90C78089500F90C790C3039F70017080D
:1000D000CF39770497002108F9002008F800F90CBF
:1000E000F80CF90CF80CF90C78089B00F90C790C59
:1000F0003039F7001D08CF3977049D000A30A2007F
:100100000420061891288619912886018701F0306D
:1001100097059D050A30A200042007110C309700B6
:1001200086158618A128061AA1288601F0309705A1
:100130009D0587010A30A200042087100C309D0025
:1001400006160619AB2886018701F03097059D0534
:0A0150000A30A20004204B286300CF
:02400E00723905
:00000001FF
;PIC16F877A
;CRC=95E3  CREATED="26-Thg5-23 17:41"
