:060000000A128A110E280D
:10000800FE00030EF0000A08F1007F08F2000A1251
:100018008A1122280A128A111128F701F801F90118
:10002800FA0183132030840040300A128A11C92152
:100038000A128A1183010A128A116A290B1D2528BE
:1000480026282B28EB308312031381000B11013073
:10005800F707003003180130F807003003180130A3
:10006800F907003003180130FA07831203133F0819
:10007800803AFF007A08803A7F02031D4D287908EC
:100088003E02031D4D2878083D02031D4D287708C0
:100098003C02031C502851285328061654280612DF
:1000A8003B08803AFF007A08803A7F02031D6628E1
:1000B80079083A02031D662878083902031D662864
:1000C80077083802031869286A2890280030FA004F
:1000D8000030F9000030F8000030F700861E75285F
:1000E800762885280130A807003003180130A907B1
:1000F800003003180130AA07003003180130AB079D
:100108009028FF30A807FF30031CA907FF30031C05
:10011800AA07FF30031CAB077208FF0071088A00AA
:10012800700E8300FE0E7E0E090083120313C201B7
:10013800F41F9F28A028A728F309F409F30A031934
:10014800F40AC201C20AF61FAA28AB28B428F50986
:10015800F609F50A0319F60A0130C0004008C2067C
:10016800C301C401730874040319BB28BC28F3280D
:10017800C101C10ACA2801300310F30DF40DFF3E76
:10018800031DC0280130C0004008C107F41FCD2856
:10019800CE28BF2801300310C30DC40DFF3E031D38
:1001A800CF2874087602031DDB2873087502031C28
:1001B800DE28DF28E6287308F5027408031CF60316
:1001C800F602431401300310F40CF30CFF3E031D38
:1001D800E7280130C102031DF228F328CE2842087F
:1001E8000319F728F828FD28C309C409C30A031905
:1001F800C40A4408F4004308F300080083120313F8
:10020800C61F0729082931294509C7004609C8001A
:10021800C70A0319C80A4708B8004808B9000030D7
:10022800B91BFF30BA00BB00FE30F300FF30F4000A
:100238004608F6004508F5000A128A1199200A12A4
:100248008A11730883120313BC007408BD000030C0
:10025800BD1BFF30BE00BF0069294608803AFF0079
:1002680080307F02031D3A2901304502031C3D29D5
:100278003E295729831203134508B8004608B900D8
:100288000030B91BFF30BA00BB004608C80045085B
:10029800C7000310C80CC70C4708BC004808BD00BD
:1002A800BE01BF016929003083120313BB0000306F
:1002B800BA000030B9000030B8000030BF0000308C
:1002C800BE000030BD000030BC0008000A128A11D0
:1002D800BA210A128A110A128A11AB210A128A114A
:1002E8008316031306148312031386160A30C500F7
:1002F8000030C6000A128A1102210A128A118312DA
:10030800031306188829892983296830831203135F
:10031800CA00E330C900C90B8F29CA0B8F29942959
:10032800031083120313861E031403189C29A029A3
:10033800831203138616A329831203138612061C3D
:10034800A629A729A32983290A128A110E28831608
:10035800031381128111011181100114EB308312F2
:10036800031381000B118B168B17080083160313D8
:1003780006138610061186118612061283120313BD
:100388000617861406158611080064008001840A81
:0A0398000406031900340406CA2904
:08400000FF3FFF3FFF3FFF3FC0
:02400E003A3F37
:00000001FF
