:1000000004308A00762C0000C4274310C724411016
:100010005429491043210000430043003B30840031
:1000200083130008031921280230F800F701F70BA9
:100030001728F80B16289730F700F70B1D28800BB0
:1000400014280800421826280812272808168316A4
:1000500008128312C2182E2888122F288816831699
:100060008812831242193628081337280817831676
:1000700008138312C2193E2888133F288817831655
:100080008813000083120815831608114728482892
:10009000831208118316081183120800C301831606
:1000A000081600308312081A0130C304831688161C
:1000B00000308312881A0130F7000310F70D77081B
:1000C000C3048316081700308312081B0130F700A1
:1000D000F70DF70DFC30F7057708C3048316881772
:1000E00000308312881B0130F700F70DF70DF70D74
:1000F000F830F7057708C3044308F80008008316B2
:1001000008110810881083120810831608100816AA
:100110008816081788178312881483168810000021
:100120008312081583160811000083124E207808E8
:10013000C2000811831608110000831208158316E7
:100140000811A22883124E207808C10008118316D6
:10015000081108128812081388138312420EF70040
:10016000F030F70577084104F8007808C100C11F96
:10017000BB2883168728BF08031DC0280810C12884
:100180000814831608100000831288108316881044
:10019000000083120811831608118312400EC1005B
:1001A0000F30C1054108C200222040080F39C100AC
:1001B000C200222008002830B3000C30B400013007
:1001C000B5000630B6000811831608118312081016
:1001D000831608108312881083168810081288125C
:1001E000081388130811081088100F308312BB0001
:1001F0000E200130B2003208033C031C07290330F3
:10020000C20022200530BB000E20B20AFB280230BB
:10021000C20022200530BB000E20B2013208033C90
:10022000031C1E2933303207840083130008B700F3
:10023000BF013708C0007F20B20A0E298A110A12B6
:10024000932C3C0B242927294030BD002829BD01CF
:1002500001303B02BD073D088038BE00BF013E08AB
:10026000C0007F2008003A08073A031941290B3AD9
:1002700003194629063A03194E29023A031954294B
:1002800059290130BB00BC0021215E29BF0101308A
:10029000C0007F200230BB000E205E290130BB0071
:1002A0000230BC0021215E29BF011030C0007F2038
:1002B0005E290130BF003A08C0007F2008000B080B
:1002C000B2008B13831603178C170C140000000068
:1002D00083120313B21B8B1703170C087F39031902
:1002E000B3290313B20003170D080313B300031758
:1002F0000F080313B4003208BA0033213308031780
:100300008D000313340803178F0003130B08B50087
:100310008B13831603178C170C1400000000831234
:100320000313B51B8B1703170C0D0E0D7F39031923
:10033000B3290313B20003170D080313B300031707
:100340000F080313B4003208BA003321330803172F
:100350008D000313340803178F008D0A03198F0AC9
:1003600003135F29031703130800B630F700FA01DF
:10037000F901F8013710B61FCB293714B309B409B6
:10038000B509B609B30A031DCB29B40A031DCB294D
:10039000B50A0319B60A3308340435043604031DBC
:1003A000D329F701E2290310F81BDF29B30DB40D9F
:1003B000B50DB60DFA0DF90DF80DF70BD329F8139D
:1003C0003718F817080037080319A82AC3003B0894
:1003D0000319A82AC302031CF2297F30C30703189C
:1003E000A82AF8298130C302031CA82A0319A82AC5
:1003F0004308F700F801F901FA01C2013808C10009
:10040000C1173908C0003A08BF001930C3003E08C0
:10041000BF0203181B2A0130C00203181B2AC102A5
:1004200003181B2AC20203181B2AC20AC10AC00AE7
:100430003E08BF074D2A3D08C0020318362A013086
:10044000C1020318362AC2020318362AC20AC10A98
:100450003D08C0073E08BF07031C4D2AC00A031D04
:100460004D2AC10A031D4D2AC20A4D2A3C08803874
:10047000C10203184C2A0130C20203184C2AC20AD6
:100480003C088038C1073D08C007031C2A2AC10A5E
:10049000031D2A2AC20A2A2A7A14C30B502A5B2A6D
:1004A0000310BF0DC00DC10DC20D0310FA0DF90DE3
:1004B000F80DC40D072A441C632A0310F80CF90C2C
:1004C000FA0CC40C662AF7030319A82AC41B8F2A46
:1004D0000310BF0DC00DC10DC20D3E08BF020318B1
:1004E0007B2A0130C00203187B2AC10203187B2A31
:1004F000C202031C9E2A3D08C0020318862A01304E
:10050000C1020318862AC202031C9E2A3C088038B6
:10051000C10203188F2A0130C202031C9E2AFA0A64
:10052000031D9E2AF90A031D9E2AF80A031D9E2A0E
:10053000F70A0319A82AF80CF90CFA0C3808C300BA
:100540003C08C306C31FA62AF817AC2AF813AC2A26
:10055000F701F801F901FA0108003308B63CB300CD
:10056000FA013408B700B4170310B40CB50CB60C7C
:10057000FA0CF90CF80CF70CB30BB42AB71FCB2A02
:10058000F709F809F909FA09F70A0319F80A03192A
:10059000F90A0319FA0A08000030F8001F08C339E5
:1005A00078049F00A301A201A101A001B2013208B9
:1005B000633C031CF52A9F149F18DC2A1E08F900CF
:1005C00083161E088312A00779080318790FA10764
:1005D000003003180130A207003003180130A307D0
:1005E0000130BB000E20B20AD72A2308B600220829
:1005F000B5002108B4002008B300B5217A08B60080
:100600007908B5007808B4007708B3007A08BA0012
:100610007908B9007808B8007708B700BE01BD01B5
:100620004830BC008530BB00E3217A08B600790869
:10063000B5007808B4007708B300AD227A08A300AB
:100640007908A2007808A1007708A0002308B60066
:100650002208B5002108B4002008B300B5217A08AB
:10066000B6007908B5007808B4007708B3007A08B6
:10067000BA007908B9007808B8007708B700AA303E
:10068000BE00F130BD000230BC008030BB00E32171
:100690007A08B6007908B5007808B4007708B30086
:1006A000AD227A08A3007908A2007808A100770893
:1006B000A0002308AB002208AA002108A9002008F6
:1006C000A8008A110A12C22C0430F8001F08C3398E
:1006D00078049F00A701A601A501A401B201320878
:1006E000633C031C8D2B9F149F18742B1E08F9006C
:1006F00083161E088312A40779080318790FA5072B
:10070000003003180130A607003003180130A70796
:100710000130BB000E20B20A6F2B2708B600260856
:10072000B5002508B4002408B300B5217A08B60046
:100730007908B5007808B4007708B3007A08BA00E1
:100740007908B9007808B8007708B700BE01BD0184
:100750004830BC008530BB00E3217A08B600790838
:10076000B5007808B4007708B300AD227A08A70076
:100770007908A6007808A5007708A4002708B60025
:100780002608B5002508B4002408B300B5217A086E
:10079000B6007908B5007808B4007708B3007A0885
:1007A000BA007908B9007808B8007708B700AA300D
:1007B000BE00F130BD000230BC008030BB00E32140
:1007C0007A08B6007908B5007808B4007708B30055
:1007D000AD227A08A7007908A6007808A500770856
:1007E000A4002708AF002608AE002508AD002408A5
:1007F000AC008A110A12C32C8318012C3E308400ED
:10080000831339083D068039C300B91F122CB6097D
:10081000B709B809B909B60A0319B70A0319B80A1A
:100820000319B90ABD1F1F2CBA09BB09BC09BD09B0
:10083000BA0A0319BB0A0319BC0A0319BD0AF70156
:10084000F801F901FA01BE01BF01C001C1013D0873
:100850003C043B043A0403195D2C2030C200031011
:10086000B60DB70DB80DB90DBE0DBF0DC00DC10D44
:100870003D084102031D462C3C084002031D462C46
:100880003B083F02031D462C3A083E02031C572C2E
:100890003A08BE023B08031C3B0FBF023C08031C86
:1008A0003C0FC0023D08031C3D0FC1020314F70DAD
:1008B000F80DF90DFA0DC20B2F2CC31F6A2CF70986
:1008C000F809F909FA09F70A0319F80A0319F90AE4
:1008D0000319FA0A3E088000840A3F088000840A4F
:1008E00040088000840A41088000080003081F397E
:1008F0008300B101B001831603170908C0398900CC
:1009000003131F129F120030031788008312870100
:100910008801890183130330831603138500003097
:1009200088008312DB281F139F1783169F178312DB
:100930001F14831603170908C039890003131F12F7
:100940009F12033003178800013083120313BB008A
:10095000BC002121043003178D0000308F000313E9
:100960005F218316051183120511831685118312E9
:100970008511AB01AA01A901A801AF01AE01AD012A
:10098000AC01CC2A642BAB1BD72CAB08031DD22C9B
:10099000AA08031DD22CA908031DD22C2808283C24
:1009A0000318D72C8316051183120515DB2C83162B
:1009B000051183120511AF1BEF2CAF08031DEA2CA4
:1009C000AE08031DEA2CAD08031DEA2C2C082D3CB3
:1009D0000318EF2C8316851183128515F32C8316CB
:1009E0008511831285110130BB000230BC0021212A
:1009F00083102B08B9002A08B8002908B700280876
:100A0000B600BD01BC01BB010A30BA00FC237A0864
:100A1000B5007908B4007808B3007708B200303028
:100A2000B207003003180130B3070030031801305B
:100A3000B407003003180130B5073208BA0033217B
:100A400083143230840083132B08B9002A08B800BD
:100A50002908B7002808B600BD01BC01BB010A3057
:100A6000BA00FC233508B9003408B8003308B700D1
:100A70003208B6003030B607003003180130B7072F
:100A8000003003180130B807003003180130B907EF
:100A90003608BA003321DF30BA0033210C30031797
:100AA0008D0000308F0003135F210D30BB0002303A
:100AB000BC00212183102F08B9002E08B8002D0892
:100AC000B7002C08B600BD01BC01BB010A30BA005A
:100AD000FC237A08B5007908B4007808B3007708D9
:100AE000B2003030B207003003180130B3070030D5
:100AF00003180130B407003003180130B50732087D
:100B0000BA00332183143230840083132F08B900D4
:100B10002E08B8002D08B7002C08B600BD01BC0196
:100B2000BB010A30BA00FC233508B9003408B8000C
:100B30003308B7003208B6003030B607003003186B
:100B40000130B707003003180130B8070030031830
:100B50000130B9073608BA003321DF30BA0033213B
:100B60000D3003178D0000308F0003135F21C12C5F
:020B7000630020
:04400E00E22FFF3F5F
:00000001FF
;PIC16F887
;CRC=389B  CREATED="03-Thg4-23 09:18"
